:100000000A128A11FC2F00308A000408840A820731
:10001000003463346F346E34743461347234653454
:1000200020347334753420346434693420346D34AE
:10003000653400343A34333420343C34333420349F
:1000400054346934203441346D346F3420343C34BA
:10005000333400344434613472346C3461342034C9
:100060002634203441346C34663461346C34663464
:10007000613400344C346534693420347334613471
:1000800020346334683465342034703475346F340C
:0200900000343A
:100B5A0000300A128A11E8250A128A1101300A1293
:100B6A008A11E825080001300A128A11E8250A12BA
:100B7A008A1108300A128A11E825080001300A127F
:100B8A008A11E8250A128A110C300A128A11E825FC
:100B9A000800F000701CD52D831203130816D82DF7
:100BAA00831203130812F01CDC2D8816DD2D88121F
:100BBA00701DE12D0817E22D0813F01DE62D881788
:100BCA00080088130800F30083120313081173083E
:100BDA000A128A11CE250A128A1183120313881562
:100BEA000B30F2006230F100F10BF92DF20BF92D06
:100BFA0000008312031388110800F700F501F601BB
:100C0A007508770784000A128A1103200A128A11CA
:100C1A00003A031908007508770784000A128A1136
:100C2A0003200A128A110A128A1124260A128A1128
:100C3A000130F5070318F60A0030F607052EF4000E
:100C4A0074080F39F1007108F2007408F039F100E4
:100C5A007108F3008312031308157308F1000430B6
:100C6A000310F10CFF3E031D352E71080A128A117A
:100C7A00CE250A128A118312031388151A30F1003D
:100C8A00F10B452E000083120313881172080A1211
:100C9A008A11CE250A128A118312031388151A3073
:100CAA00F100F10B562E000083120313881108007D
:100CBA00F7007703031D822E74087F3EF50075083E
:100CCA00FA007A08F50004300310F50CFF3E031D04
:100CDA00692E7508F6007608F8007A080F39F500CB
:100CEA007508F90078080A128A11E8250A128A1189
:100CFA0079080A128A11E825080002307706031DCE
:100D0A0008007408BF3EF5007508FA007A08F50075
:100D1A0004300310F50CFF3E031D8E2E7508F600F5
:100D2A007608F8007A080F39F5007508F90078088E
:100D3A000A128A11E8250A128A1179080A128A11F6
:100D4A00E825080000300A128A11CE250A128A11F3
:100D5A003430F500F130F400F40BB12EF50BB12E5E
:100D6A00B62E03300A128A11E8250A128A110D30AA
:100D7A00F500FB30F400F40BC02EF50BC02EC52E87
:100D8A0003300A128A11E8250A128A111D30F50069
:100D9A009130F400F40BCF2EF50BCF2E03300A124C
:100DAA008A11E8250A128A1102300A128A11E825E4
:100DBA000A128A1102300A128A11E8250A128A11C5
:100DCA0008300A128A11E8250A128A1100300A121A
:100DDA008A11E8250A128A110C300A128A11E825AA
:100DEA000A128A1100300A128A11E8250A128A1197
:100DFA0006300A128A11E8250800831603138801AF
:100E0A000A128A11A7260A128A110A128A11AD2514
:100E1A000A128A11F401F40A01300A128A115D26B3
:100E2A000A128A1132300A128A1102260A128A1109
:100E3A00F401F40A02300A128A115D260A128A1192
:100E4A0001300A128A1102260A128A111530FD008F
:100E5A004B30FC00BE30FB00FB0B312FFC0B312F5B
:100E6A00FD0B312F00000A128A11AD250A128A11D0
:100E7A00F401F40A01300A128A115D260A128A1153
:100E8A0022300A128A1102260A128A11F401F40A7D
:100E9A0002300A128A115D260A128A111F300A12BA
:100EAA008A1102260A128A111530FD004B30FC0005
:100EBA00BE30FB00FB0B5F2FFC0B5F2FFD0B5F2F80
:100ECA0000000A128A11AD250A128A11F401F40AE5
:100EDA0001300A128A115D260A128A1112300A1288
:100EEA008A1102260A128A1183120313A001A10190
:100EFA00003021020F30031920020318A52F0430F5
:100F0A00FD000C30FC003330FB00FB0B8A2FFC0B7E
:100F1A008A2FFD0B8A2F912F0A128A11B8250A12DD
:100F2A008A11013083120313A0070318A10A0030A3
:100F3A00A107003021020F3003192002031C842F5D
:100F4A00A001A101003021020F3003192002031869
:100F5A00CF2F0430FD000C30FC003330FB00FB0BBC
:100F6A00B42FFC0BB42FFD0BB42FBB2F0A128A111E
:100F7A00C3250A128A11013083120313A00703182A
:100F8A00A10A0030A107003021020F300319200204
:100F9A00031CAE2F0A128A11AD250A128A11F40116
:100FAA00F40A02300A128A115D260A128A114130A5
:100FBA000A128A1124260A128A1126300A128A1162
:100FCA0024260A128A1141300A128A1124260A1288
:100FDA008A111530FD004B30FC00BE30FB00FB0BC4
:100FEA00F42FFC0BF42FFD0BF42F00000A2F8301C2
:060FFA000A128A11022F09
:02400E007A3FF7
:00000001FF
